:100000000C942F020C9457020C9457020C94570234
:100010000C9457020C9457020C9457020C945702FC
:100020000C9457020C9457020C9457020C947416BB
:100030000C9457020C9457020C9457020C945702DC
:100040000C94251A0C9457020C9457020C945702E6
:100050000C9457020C9457020C9457020C945702BC
:100060000C94F8180C9457020806EF05EF05EF05FD
:10007000EF05EF05EF050F0616061D06EF05EF0568
:10008000EF05EF05EF05EF05EF0524062B06320619
:10009000536C61766520646973636F6E6E6563741B
:1000A00065640057726F6E6720736C6176652064BB
:1000B0006174610031206D6173746572206D6178C7
:1000C00000536C61766520706175736564005472CD
:1000D0006F6E00E500E000D900496E73616E650047
:1000E000486172640045617379000B01FD00F00006
:1000F0004A6F696E2028736C6176652900486F73BA
:100100007420286D617374657229003120706C61F0
:100110007965720003053F213F1208120A100A0E8A
:100120001C0E0C1E0C141A14161F161E131E1E1B5A
:100130001E1E1F1E3F213F3A2F3A173D173F213FFA
:10014000181F02040A041F0E04040E1F0A1F0A0EC1
:100150000E1F04110E2E252E2F2A2E262929021FAE
:1001600002081F08150E04040E150E15151B151B8D
:10017000040604040C040000000017000300031F21
:100180000A1F16371A1904130A153A000300000E45
:1001900011110E000A040A040E04003000040404C5
:1001A0000010001804031F111F121F101D15171136
:1001B000151F07041F17151D1F151D01011F1F15F2
:1001C0001F17151F000A00003200040A110A0A0A4C
:1001D000110A040115020E11171E051E1F150A0E25
:1001E000110A1F110E1F15111F05010E111D1F04ED
:1001F0001F111F1108100F1F041B1F10101F061FB7
:100200001E040F0E110E1F09060E112E1F051A12C5
:100210001509011F011F101F0F180F1F0C1F1B04B2
:100220001B031C03191513001F11030418111F00D1
:100230000201022020200001020C121E1F120C0CD1
:1002400012120C121F0C1A14041E05242A1E1F025F
:100250001C141D1020201D1F0814111F101E041E29
:100260001E021C0C120C3E0A040C123E1E04021448
:10027000160A020F120E101E0E100E1E081E120C71
:100280001226281E322A26041E21001F00211E04C9
:100290000102013F213F0A4E6F20534420636172E7
:1002A00064206F720A6E6F204C4F414445522E48B5
:1002B00045580A0A153A45786974001D20466C6154
:1002C0007368696E670A20206C6F616465722E2EF8
:1002D0002E0A0A444F4E2754205455524E204F4662
:1002E0004621000A0A153A49676E6F7265006D561D
:1002F0000A0A504C45415345205455524E204F4612
:100300004620004C4F572042415454455259212019
:10031000001753440016137800161314001510200C
:100320000015201000540A03E181867F3E186D837A
:100330000F0F0E0183866033186DC3198F1803C326
:100340008E6033186DE330CF1803C39E603630CD16
:10035000E360CF3006C79E7E3E30CDB360CF300C19
:10036000C6F6603330D9B660CF33CFCCF66061B01B
:10037000DB1E60CF30D86CE6C061B0DB1E618F1928
:10038000986CC6C063B19B0E330F0FB078C6FF7E6A
:100390001F1B061E0F0500893008023802497868C5
:1003A000140000F6E8DBCFC3B8AEA49B928A827B30
:1003B000746E68625C57524E4945413E3A3734315B
:1003C0002E2C29272523211F1D1C1A191716151439
:1003D000131211100F0E0D0C0B0A09080706450029
:1003E00068010000050068013801000005003801BF
:1003F00068010000FC03F8030101FF030101F7039A
:1004000000000008000201000003040700000000D3
:1004100000000000010204081020408001020408CE
:10042000102001020408102004040404040404043D
:10043000020202020202030303030303000000009E
:1004400023002600290000000000250028002B00C2
:1004500000000000240027002A004105081811248C
:100460001FBECFEFD8E0DEBFCDBF11E0A0E0B1E00E
:10047000EEEAF0E402C005900D92AA34B107D9F774
:1004800024E0AAE4B1E001C01D92A43CB207E1F768
:1004900014E0CEE5D4E004C02297FE010E94D21FF2
:1004A000CA35D107C9F70E943F1C0C9455200C9403
:1004B000000089E280934A0180915C01882311F059
:1004C00081E301C080E380934B018AE280934C0179
:1004D00080915B01882311F081E301C080E3809368
:1004E0004D018BE280934E0180915A01882311F0D7
:1004F00081E301C080E380934F018CE2809350013F
:1005000080915901882311F081E301C080E3809339
:10051000510180915601882389F081E080934A013E
:1005200080934B0180934C0180934D0180934E0149
:1005300080934F01809350018093510180910A0173
:10054000882389F082E080934A0180934B01809355
:100550004C0180934D0180934E0180934F01809315
:1005600050018093510110925C0110925B01109236
:100570005A01109259011092580110925701EAE461
:10058000F1E0DF010D900020E9F7AD014150510984
:100590004A545140E091F703F091F8030280F3814F
:1005A000E02D6AE471E087EF93E009948435D8F494
:1005B0006033C8F4962F959595959595E82FFF276C
:1005C000E7FDF095EF50FE4F84E59802E00DF11D38
:1005D0001124808190E0677002C0959587956A9597
:1005E000E2F78170089580E008950F931F93CF93F1
:1005F000DF93FC01862F643508F044C0403308F0D7
:1006000041C090A1042F059505950595C62FDD27BE
:10061000C7FDD095142F1770923031F4642F0E94CB
:10062000D6028823F1F00AC0933031F4462784853E
:10063000482740FF03C015C0911113C0FE0184E597
:100640000802E00DF11D1124EF50FE4F81E090E013
:10065000012E01C0880F0A94EAF7809590819823B3
:1006600010C0FE0184E50802E00DF11D1124EF50D9
:10067000FE4F81E090E001C0880F1A95EAF7908163
:10068000982B9083DF91CF911F910F910895DC01FA
:10069000ED91FC910190F081E02D09946EEC70E0F9
:1006A00089E691E00C941813CF9389E691E00E94BB
:1006B000220EC1E0C093BD0120E340E060E087EB83
:1006C00091E00E94340920E340E061E087EB91E093
:1006D0000E94340920E340E062E587EB91E00E944C
:1006E000340920E340E063E587EB91E00E943409A0
:1006F00024E540E060E087EB91E00E94570924E5A3
:1007000041E060E087EB91E00E94570924E54EE26A
:1007100060E087EB91E00E94570924E54FE260E03A
:1007200087EB91E00E9457098AE0809364018093EF
:10073000650183E090E09093680180936701C09326
:1007400066018AE480935F0186E28093600182E023
:1007500090E09093630180936201C09361011092D5
:100760005C0110925B0110925A0110925901109293
:10077000580110925701CF91089543E063ED70E066
:1007800089E691E00E944310813059F0823081F077
:10079000811117C067E089E691E00E940A0E87E0A8
:1007A0000DC06FE089E691E00E940A0E8FE006C05E
:1007B00069E189E691E00E940A0E89E18093530184
:1007C000089510925E0110925D01089587EF93E005
:1007D0000C94AD171F93CF93DF9300D000D01F92DE
:1007E000CDB7DEB749835A8310E06981610F4A8132
:1007F00087EB91E00E94F5024A814F5F6981610FAA
:1008000087EB91E00E94F5021F5F123071F70F90A5
:100810000F900F900F900F90DF91CF911F9108953F
:10082000CF93DF93EC018B819C81009719F4898130
:10083000825005C08130910521F489818E5F8983C2
:100840000BC08230910519F48881825004C003974F
:1008500019F488818E5F8883698188810E94D6021D
:10086000813009F41A82DF91CF910895CF93DF93FD
:10087000EC0161E083E791E00E948F08882319F082
:100880001C821B821FC063E083E791E00E948F08F7
:10089000882319F081E090E013C060E083E791E0E5
:1008A0000E948F08882319F082E090E009C062E07E
:1008B00083E791E00E948F08882321F083E090E095
:1008C0009C838B83DF91CF9108951F93CF93DF9308
:1008D000EC012CE330E040E050E060E070E0CB0160
:1008E0000E94CA1D672B682B692B91F424E030E02D
:1008F00040E050E060E070E0CB010E94CA1DFB01C7
:10090000EE0FFF1FE55FFE4F808191819C838B83FB
:1009100016E0888169812B813C812115310511F414
:1009200062500EC02130310511F46E5F09C02230D3
:10093000310511F4825004C02330310509F48E5F73
:100940000E94D6028823A1F024E030E040E050E08D
:1009500060E070E0CB010E94CA1DFB01EE0FFF1F9B
:10096000E55FFE4F808191819C838B83115089F6D6
:10097000DF91CF911F91089562E083E791E00E949B
:100980008F08882321F081E0809359010AC060E03C
:1009900083E791E00E948F08882319F081E080931B
:1009A0005A0161E083E791E00E948F08882321F0DB
:1009B00081E080935C01089563E083E791E00E9409
:1009C0008F08882319F081E080935B01089584E605
:1009D00091E00E9410048FE591E00C941004409186
:1009E0006401509165016091660170916701809189
:1009F00068010E94EA0340915F015091600160919B
:100A0000610170916201809163010C94EA0362E0DC
:100A100070E087EF93E00E94CA176FEE75E087EFF2
:100A200093E00E94FE1769E572E087EF93E00C9473
:100A300003180E944E0310925E0110925D016FE058
:100A400089E691E00E940A0E8FE0809353010E9494
:100A5000E6030C94070589E691E00E9495130C9437
:100A600019051092560180915201811107C061E071
:100A700070E080E090E00E949E1AF5CF1092520143
:100A800008951092BA011092B9018FE291E090930B
:100A9000B8018093B7010895AF92BF92DF92EF92B1
:100AA000FF920F931F93CF93DF931F92CDB7DEB7C3
:100AB00048E050E062E070E087EF93E00E94D917D1
:100AC000882309F475C0109255011092560122E056
:100AD000A22EB12C01E010E033E0E32EF12CDD2456
:100AE000D39487EF93E00E94E716892B09F46CC03A
:100AF00087EF93E00E94EF16282F8932B9F084F433
:100B0000813009F441C0823009F04AC042E064EB10
:100B100070E089E691E00E945F0ED0925601E1CF2D
:100B20008B32D1F074F08C3219F13AC087EF93E038
:100B30000E94EF16C197A9F610926301109262010C
:100B4000D0CF87EF93E00E94EF16C19751F6109334
:100B5000630100936201C5CF87EF93E00E94EF1617
:100B6000C19709F0BECFB0926301A0926201B9CFE4
:100B700087EF93E00E94EF16C19709F0B2CFF09291
:100B80006301E0926201ADCF42E061EC70E089E682
:100B900091E029830E945F0E298120935601A1CF05
:100BA00042E063EA70E089E691E00E945F0E99CF2F
:100BB00042E060E970E089E691E00E945F0E81E02A
:100BC00080935601809355010F90DF91CF911F9133
:100BD0000F91FF90EF90DF90BF90AF90089587EF57
:100BE00093E00E94E716892B09F443C087EF93E056
:100BF0000E94EF16992787FD9095A92FB92FFC0128
:100C00003397E431F10558F7EC5CFF4F0C94D01F9B
:100C100087EF93E00E94EF1680935301E0CF87EFB8
:100C200093E00E94EF1680936401D9CF87EF93E0A1
:100C30000E94EF1680936501D2CF87EF93E00E9468
:100C4000EF1680936601CBCF87EF93E00E94EF16FB
:100C500080935F01C4CF87EF93E00E94EF168093EB
:100C60006001BDCF87EF93E00E94EF168093610192
:100C7000B6CF81E08093520110925501089562E051
:100C800070E087EF93E00E94E61763E070E087EF83
:100C900093E00E9447036091530187EF93E00E9425
:100CA0006E176AE070E087EF93E00E94470360915F
:100CB0006401772767FD709587EF93E00E944703F3
:100CC0006BE070E087EF93E00E944703609165015D
:100CD000772767FD709587EF93E00E9447036CE0EC
:100CE00070E087EF93E00E944703609166017727E9
:100CF00067FD709587EF93E00E94470364E170E021
:100D000087EF93E00E94470360915F01772767FDBB
:100D1000709587EF93E00E94470365E170E087EFED
:100D200093E00E94470360916001772767FD70950B
:100D300087EF93E00E94470366E170E087EF93E05E
:100D40000E94470360916101772767FD709587EFE7
:100D500093E00E94470387EF93E00C94FB170E94F7
:100D60004C050C943F0689E691E00E94890F882388
:100D700009F4ACC066E083E791E00E948F0881111E
:100D80000E944E0380915D0190915E01813091053A
:100D9000D9F18230910509F472C0892B09F096C00F
:100DA00043E06AEE70E089E691E00E9443108130F2
:100DB00071F08230B9F081111EC01092560110926C
:100DC000550110920A0181E08093540108C01092ED
:100DD00056011092550180930A01109254010E940D
:100DE000BD030DC0109256011092550110920A01D8
:100DF0001092540104C010925E0110925D010E9495
:100E0000540381E090E036C080915601811119C0F1
:100E100080915401811104C080910A01882329F036
:100E200084E691E00E94360402C00E94BC048091D6
:100E30005401882321F08FE591E00E9465040E940F
:100E4000E7040E94EF0480915401811109C0809150
:100E50000A01882319F00E94AF0602C00E943105E2
:100E600080916601882321F08091610181112EC05B
:100E700082E090E090935E0180935D01089587EB9E
:100E800091E00E94D3081092BD019091660180917B
:100E90006101981303C065E171E009C0911103C0BD
:100EA0006DE171E004C0811106C064E271E087EB7E
:100EB00091E00E94B11C64E083E791E00E948F08FA
:100EC000882321F010925E0110925D010895CF9366
:100ED000CFB7F8948091F001811127C0E2E3F4E0EC
:100EE0008491EEE1F4E09491E82FF0E0EE0FFF1F23
:100EF000E05BFB4FA591B4918C91892321F461E0D3
:100F00008AE00E94DF1B61E08AE00E94A61B8CB58C
:100F100080618CBD8CB580648CBD61E08DE00E94E9
:100F2000A61B61E08BE00E94A61B8091F0018F5F01
:100F30008093F001CFBFCF91089521E0FC01208381
:100F4000089570E085E00C941E1BAF92BF92CF9283
:100F5000DF92EF92FF920F931F93CF93DF93EC01F9
:100F600089819A812FE0289F8001299F100D1124EB
:100F700085E10E94011B800F911F24E096958795C3
:100F80002A95E1F79A8389832881222391F1AC8104
:100F9000AD80B12CC12CD12CE885F9857F0100E012
:100FA00010E06E817F819B0140E050E0861797073B
:100FB00028F0BC01E817F90708F4BF0180E090E0D1
:100FC0001F921F921F92AF930E94E61D6B830F909A
:100FD0000F900F900F9070E085E0DF91CF911F91FF
:100FE0000F91FF90EF90DF90CF90BF90AF900C9457
:100FF0001E1BDF91CF911F910F91FF90EF90DF901B
:10100000CF90BF90AF900895FC018CE39FE0938355
:10101000828384E0818381E084870895CF93DF9386
:10102000EC018C819D81892B81F18C858F7151F52B
:1010300084E10E94011BBC01882777FD8095982FD1
:101040000E945C1E26EE3FE34EEC50E40E94E81E38
:101050000E942E1E9B017B836A836115710581F0BE
:1010600084E08983FE0140E0848195812817390757
:1010700010F449830AC04F5F32964430A9F702C08A
:101080008FEF89838C858F5F8C87DF91CF91089557
:10109000FC0188E0808389E0818387E0828386E0A9
:1010A000838384E0848382E0858381E1868308955D
:1010B000DF92EF92FF920F931F93CF93DF937C0108
:1010C000EC0100E010E0DD24DA9462E088810E9407
:1010D000A61B88810E94151CF701E00FF11F892BC8
:1010E00021F487818F5F878308C08781882349F037
:1010F0008F3F11F4178201C0D78260E088810E947F
:10110000A61B0F5F1F4F219607301105F1F6DF91E7
:10111000CF911F910F91FF90EF90DF900895FC0108
:10112000E60FF11D81E09781913009F080E008958C
:10113000262F30E0FC01E20FF31F8781423028F4B4
:1011400081508E3F48F080E008958F3FE1F3642F97
:101150000E945B1F9130B9F781E008958EBD0000B9
:101160000DB407FEFDCF8EB508951F93CF93DF9387
:10117000EC01162FF89460E08F850E94DF1B8889B0
:1011800018161CF460E00E94DF1B812F0E94AE083D
:10119000888918161CF461E00E94DF1B7894DF91A7
:1011A000CF911F91089528EF31E0E1EFF1E0DF01E9
:1011B000A9011D9241505040E1F7DC0119961C92A3
:1011C00019971A961C920895DF92EF92FF920F934F
:1011D0001F93CF93DF93EC018C858F5F8C8781EF1A
:1011E000E82E81E0F82ED12C6D2D6064CE010E9496
:1011F000B50860E8CE010E94B50861E08F850E94C5
:10120000DF1B888918161CF460E00E94DF1B00E0D9
:1012100010E0F701E00FF11F80810E94AE080F5F20
:101220001F4F04351105A9F7888918161CF461E0D1
:101230000E94DF1BD39484E5E80EF11C86E0D812EF
:10124000D3CF60E4CE01DF91CF911F910F91FF903A
:10125000EF90DF900C94B508FC0160A361A30895A2
:10126000FC0160A341A30895CF92DF92FF920F93F8
:101270001F93CF93DF931F92CDB7DEB76C01062F7C
:10128000F42E10E0121754F4412F4F0D602FC601B9
:1012900029830E94F5021F5F2981F4CF0F90DF910F
:1012A000CF911F910F91FF90DF90CF900895CF9233
:1012B000DF92FF920F931F93CF93DF931F92CDB7CF
:1012C000DEB76C01062FF42E10E0121754F4612FD4
:1012D000600F4F2DC60129830E94F5021F5F2981EF
:1012E000F4CF0F90DF91CF911F910F91FF90DF907E
:1012F000CF900895DF92EF92FF920F931F93CF93B9
:10130000DF93EC01E62ED22EF42E112707FD109567
:10131000040F111D47FD1A958F2D992787FD909574
:101320008017910744F42D2D4F2D6E2DCE010E9474
:101330005709F394F1CFDF91CF911F910F91FF9057
:10134000EF90DF9008958F929F92AF92BF92CF92CD
:10135000DF92EF92FF920F931F93CF93DF93EC01F5
:10136000E62ED42E122FCC24C394C21AB22EB194DE
:10137000BB0CF12C802F8470A82E802F8270982EA9
:10138000802F8870882E0170F1160CF04DC0C7FCBC
:1013900004C01150B394B394CB0CF3948F2D880FE9
:1013A0008F5FC80EAA2071F0412F4D0D6F2D6E0D6D
:1013B000CE010E94F5024F2D4D0D612F6E0DCE0115
:1013C0000E94F502992071F04D2D411B6F2D6E0D7D
:1013D000CE010E94F5024D2D4F19612F6E0DCE01E9
:1013E0000E94F502882071F04F2D4D0D6E2D611B6E
:1013F000CE010E94F502412F4D0D6E2D6F19CE01C9
:101400000E94F502002309F4BFCF4D2D4F196E2D18
:10141000611BCE010E94F5024D2D411B6E2D6F19EF
:10142000CE010E94F502B0CFDF91CF911F910F91B5
:10143000FF90EF90DF90CF90BF90AF909F908F90F4
:1014400008958F929F92AF92BF92CF92DF92EF92C8
:10145000FF920F931F93CF93DF93EC01B62EA42E30
:10146000122FDD24D394D21AC22EC194CC0CFF24A7
:10147000F394802F8170882E992493949E0C02708F
:101480008FEF8F0D8117C4F5D7FC04C01150C394A2
:10149000C394DC0C8F2D880F8F5FD80E882099F0B5
:1014A000212F220F290D4A2D411B6F2D6B0DCE01CF
:1014B0000E94340923E02E0D4A2D4F19612F6B0D28
:1014C000CE010E943409002399F0212F220F290D0B
:1014D0004A2D411B6B2D6F19CE010E94340923E068
:1014E0002E0D4A2D4F196B2D611BCE010E94340920
:1014F000F394E394E394C4CFDF91CF911F910F91C4
:10150000FF90EF90DF90CF90BF90AF909F908F9023
:1015100008959F92AF92BF92CF92DF92EF92FF9287
:101520000F931F93CF93DF93EC01B62EF42EA22ED0
:10153000DE2CD194DD0C9D2C920E1E2D160F292D24
:10154000612F0E945709CC24CA94C00ECF0C292DBC
:101550004C2D612FCE010E945709D00EFE0C2D2D6F
:101560004F2D6B2DCE010E943409BA0C6FEF6B0D1D
:101570002D2D4F2DCE010E94340901E02E2D4F2D2F
:10158000612FCE010E94A309DE2CD094DB0C02E077
:101590002E2D4F2D6D2DCE010E94A309CE1804E0F3
:1015A0002E2D4C2D6D2DCE010E94A30908E02E2D6D
:1015B0004C2D612FCE010E94A309DF91CF911F9185
:1015C0000F91FF90EF90DF90CF90BF90AF909F90E2
:1015D0000895AF92BF92CF92DF92EF92FF920F9356
:1015E0001F93CF93DF93EC01A62EC42EB22EF02EC4
:1015F0001E2DE194EE0CD12ED60E2E2D2B0D6D2D21
:101600000E947A09FA94FE0CC10E6FEF6A0D6B0D01
:10161000611BEF2C01E0212F4C2DCE010E94210AED
:1016200002E0212F4C2D6D2DCE010E94210ADF9169
:10163000CF911F910F91FF90EF90DF90CF90BF90CF
:10164000AF9008956F927F928F929F92AF92BF92C8
:10165000CF92DF92EF92FF920F931F93CF93DF937E
:10166000F901A49031965491FC01F0A064350CF07E
:101670000CC1BB24A7FCB094A62FBB27A7FDB09537
:10168000FD01EA0DFB1D1E161F060CF0FEC04033C7
:101690000CF0FBC0C52E042F112707FD1095E801A3
:1016A000C50FD11D57FDDA951C161D060CF0EDC0B7
:1016B000E90122969501295F3F4F37FF02C0295F5C
:1016C0003F4F73E0359527957A95E1F747FF0AC0BC
:1016D000C52EC40E209FA001219F500D1124C41BB4
:1016E000D50B40E00C2D112707FD1095040F111D9F
:1016F00047FD1A95013311051CF070E3C72EC41A7B
:1017000067FD60E0E535F10514F0E4E5F0E01E2F3B
:10171000FC0174857427862F992787FD9095FC011D
:10172000EA1BFB0BDF015F01F7E0AF22BB24E0E81F
:10173000F0E002C0F595E795AA94E2F70E2FB7FD09
:10174000179653E0B595A7955A95E1F7AC0FBD1FD5
:10175000E42FE77051E001C0550FEA95EAF745958F
:1017600045954595E4E54E02800D911D11248F505D
:101770009E4F40E0DD24C7FCD094BB24B3943327B4
:10178000E42FF0E0EC15FD050CF07FC0FD01E490C6
:10179000F1E0FF1219C0EC01A02EFD01862E881A7F
:1017A0009C2E980C911608F067C09E2C9A2019F078
:1017B0009880952A9882A69429F43196E4906894AA
:1017C000AA24A7F82196ECCFF1101BC0752E7094B7
:1017D000EC01A02EFD01862E881A9C2E980C9116E5
:1017E00008F04AC09E2C9A2019F098809720988281
:1017F000A69429F43196E4906894AA24A7F8219637
:10180000ECCFE3E0FE1631F0EC01A02EFD01862EB8
:10181000881A2EC0752E7094962EEC01A02EFD0114
:101820009116B0F48E2C8A2049F08880692C6726A6
:1018300060FE02C0852A01C087208882A69429F410
:101840003196E4906894AA24A7F893942196E8CF5F
:101850007B2512C09E2C9A2019F09880952698829C
:10186000A69429F43196E4906894AA24A7F82196C6
:101870009C2E980C911670F3550F19F48C5A9F4FAB
:1018800051E04F5FA20FB31F7BCFDF91CF911F912C
:101890000F91FF90EF90DF90CF90BF90AF909F900F
:1018A0008F907F906F900895DC01FB0184918F5F92
:1018B00014968C9314973196E491EF5F1596EC9300
:1018C00015976E5F7F4F5F967C936E935E9708953A
:1018D000EF920F93CF93DF93EC014E876D872F87A5
:1018E000E98A088B81E0888788A319A28F8364E145
:1018F00071E0CE010E94540C0E9467078CB58F7D69
:101900008CBD8CB58C7F81608CBD8DB581608DBDAB
:101910008CB58C608CBD61E08E850E94A61B61E059
:101920008D850E94A61B61E08F850E94A61B898978
:1019300018161CF461E00E94A61B888918161CF476
:1019400061E00E94A61B898918166CF460E00E9471
:10195000DF1B6AE070E080E090E00E949E1A61E088
:1019600089890E94DF1B8D85992787FD9095FC0151
:10197000E85DFB4FE491F0E0EE0FFF1FEA5BFB4FE9
:10198000259134913D8B2C8BFC01EC5EFB4F8491B7
:101990008B8F8E85992787FD9095FC01E85DFB4F25
:1019A000E491F0E0EE0FFF1FEA5BFB4F25913491CD
:1019B0003B8B2A8BFC01EC5EFB4F84918A8F8889DC
:1019C000992787FD9095FC01E85DFB4FE491F0E0DD
:1019D000EE0FFF1FEA5BFB4F259134913F8B2E8B5F
:1019E000FC01EC5EFB4F84918C8F8F85992787FDDE
:1019F0009095FC01E85DFB4FE491F0E0EE0FFF1FD6
:101A0000EA5BFB4F25913491398F288FFC01EC5E06
:101A1000FB4F84918D8F61E2CE010E94B50864E195
:101A2000CE010E94B5088B8587FF02C08FE78B87A8
:101A30006B856068CE010E94B50860E2CE010E940D
:101A4000B5086CE0CE010E94B508CE01DF91CF91C0
:101A50000F91EF900C94E4086F927F928F929F9277
:101A6000AF92BF92CF92DF92EF92FF920F931F93AC
:101A7000CF93DF93EC01162FF42EB02EE8A064353F
:101A80000CF081C08FE284170CF47DC0EC81F0E093
:101A900031970E9FC0010F9F900D1124860F911D4D
:101AA00067FD9A95181619060CF06DC08D81809F00
:101AB000C0011124840F911D47FD9A95181619062F
:101AC0000CF061C0A62E962EC22ED12C8A2D811B21
:101AD000992787FD90952C8130E0821793070CF0B1
:101AE00051C0215031098217930779F0C29ED0016D
:101AF000C39EB00DD29EB00D1124A80FB91FEE8D5C
:101B0000FF8DEA0FFB1F749001C0712C8F2C6F2C7E
:101B1000282D2F19332727FD30958D8190E0281728
:101B200039076CF570FE11C081E0B81206C0482D6F
:101B30006A2DCE010E94F5021EC00B2D2B2D462DC5
:101B4000692DCE010E947A0916C089A198A1891732
:101B500091F088A381E0B81206C0482D6A2DCE010D
:101B60000E94F50207C00B2D2B2D462D692DCE01AD
:101B70000E947A09E8A276946B0C8394C9CF9B0CDF
:101B8000A394A4CFE8A2DF91CF911F910F91FF9072
:101B9000EF90DF90CF90BF90AF909F908F907F900D
:101BA0006F9008950F93CF93DF93EC01262F6A3047
:101BB00039F42D8198858A85299F800D112422C0B2
:101BC0006D3011F108854A8569850E942C0D488584
:101BD0005C812985549F200D112429878F818823BA
:101BE00099F0332727FD309584E590E0459F8019D3
:101BF00091091124821793073CF49D818A85499F9E
:101C0000800D11248A87198681E090E0DF91CF91C1
:101C10000F910895CF93DF93FC01462FEC01C1583B
:101C2000DF4F70E088EE93E00E947B1F6883842F73
:101C300064E10E945B1F811101C081E081A7DF91F7
:101C4000CF910895CF92DF92EF92FF920F931F935F
:101C5000CF93DF93EC010A8D1B8D009510950E94A8
:101C60007B1A6B017C010E947B1AC094D094E09493
:101C7000F0946095709580959095C69E9001C79E52
:101C8000300DD69E300D1124209F7001219FF00C45
:101C9000309FF00C11240980DA81C02D0E947B1A3C
:101CA000CE01860F971F8E0D9F1DDF91CF911F9143
:101CB0000F91FF90EF90DF90CF900C949E1DFC0150
:101CC000EC57FF4F718360833296445F40830895E1
:101CD0008F929F92AF92BF92CF92DF92EF92FF923C
:101CE0000F931F93CF93DF93EC015C0186E8A80E5E
:101CF000B11CD5018C91882309F44DC08C3018F4A7
:101D00001CE0181B01C010E0FE01EA5AFF4F81E001
:101D100080836E01BEE4CB0ED11C60E0C6010E9440
:101D20002C094E01E3E58E0E911CD4018C9103E049
:101D3000080F9DE2F92E4F2D481B410F23E0E22EA4
:101D400024E560E0C6010E94E90A61E0C6010E9444
:101D50002C09F401808103E0080F4F2D481B410F2F
:101D600024E560E0C6010E94890AFE01E95AFF4F9E
:101D700084E080833196D4018C91181B115D10830F
:101D8000CC57DF4F68817981C6010E948C1CF50118
:101D9000808181508083DF91CF911F910F91FF90BF
:101DA000EF90DF90CF90BF90AF909F908F9008956D
:101DB000DF92EF92FF920F931F93CF93DF93EC018B
:101DC0008C8D9D8D892B09F49CC08E01025B1F4F69
:101DD00040E061E0C8010E94300985E5FE01EE5A4D
:101DE000FF4F9081891B3596808331961082698DD3
:101DF000613009F462C028F0888D653008F074C045
:101E00006FC0CE0185960E941A1581E0FE01EA5A44
:101E1000FF4F808364E171E0C8010E94540C1D8E65
:101E20001C8EFE01EC5AFF4F108238EAD32E7E0141
:101E30008AE0E80EF11CCE010E94890F8823D9F3B5
:101E400063E073E0C8010E948C1C6A8D7B8D4AE0C0
:101E500050E0C8010E94981D6EEE72E0C8010E9419
:101E60008C1C6D2D62956F7070E04AE050E0C801E7
:101E70000E94831D63EE72E0C8010E948C1C64E026
:101E8000C7010E948F0881113CC0DA94A1F660E07E
:101E9000CE010E94A10783B7817F846083BF83B78F
:101EA000816083BF83B7816083BF889583B78E7F4E
:101EB00083BF83B78E7F83BFBECFCF58DF4F4881AC
:101EC00059816A817B814F70552766277727483073
:101ED00051056105710510F467E009C068E707C0A6
:101EE000882379F06B5F03C0882359F06FE2C80143
:101EF000DF91CF911F910F91FF90EF90DF900C94A5
:101F0000B31CDF91CF911F910F91FF90EF90DF9065
:101F100008958F929F92AF92BF92EF92FF920F938C
:101F20001F93CF93DF93EC017C0100E8E00EF11CDE
:101F3000F70180809180A280B3800E946F1A950182
:101F40008401061B170B280B390BB901A8015E0190
:101F50001FE7A10EB11CF501808190E0A0E0B0E088
:101F60008E0105581F4F84179507A607B70750F431
:101F7000F80180819181A281B381892B8A2B8B2BDF
:101F800009F040C0F80180819181A281B381892B41
:101F90008A2B8B2BA9F57E01F5E2EF0EF11CC70110
:101FA0000E941715C7010E948415C7010E94481698
:101FB000CE010E94680ECE010E94D80E7E012EE452
:101FC000E20EF11CC7010E94E408FE01EC5AFF4F2B
:101FD0008081811103C0C7010E94D3080E947B1A2F
:101FE000F8016083718382839383FE01EB58FF4F76
:101FF000C958DF4F28813981621B730B718360835D
:1020000080E036C00E946F1AF5012081620F711DB9
:10201000811D911DF7016083718382839383FE018B
:10202000EF58FF4F40815181628173814F5F5F4F55
:102030006F4F7F4F4083518362837383F801108217
:102040001182128213820E947B1AFE01E958FF4F0F
:102050006083718382839383CE010E94A507CE01A2
:102060000A960E945808CE0148960E940E0881E008
:10207000DF91CF911F910F91FF90EF90BF90AF90A4
:102080009F908F9008952F923F924F925F926F9200
:102090007F928F929F92AF92BF92CF92DF92EF92F8
:1020A000FF920F931F93CF93DF93CDB7DEB7669761
:1020B0000FB6F894DEBF0FBECDBF9E8B8D8B6F87A2
:1020C000788B942EFC01EC5AFF4F108288248A945E
:1020D0001C82A12C30E33B83B12C6C018AE0C80E3A
:1020E000D11C6D887E8893E5690E711CED89FE898F
:1020F000B5962F01242F30E03A8729878D899E8954
:10210000895A9F4F9E838D83ED89FE89E85AFF4F40
:10211000F887EF832D893E892A5A3F4F3C872B87CA
:102120008D899E898B5A9F4F9E878D87ED89FE8969
:10213000E25BFF4F1F018D899E890E94890F8823D2
:10214000D1F364E0C6010E948F083B81032F112761
:1021500007FD109581113EC065E0C6010E948F0801
:10216000811138C066E0C6010E948F08811132C01B
:102170003C81311142C044E063E0C6010E949808EE
:10218000882321F0B394C2010E94C41644E061E0A8
:10219000C6010E949808882321F0BA94C2010E94C7
:1021A000C4168B2D992787FD9095E985FA858E17A2
:1021B0009F0731F0B7FE05C0BB24BA94B90C01C02B
:1021C000B12CF301808174E0A72EA80E8B9DA0187E
:1021D00011241DC0F301A08064E0C6010E948F0895
:1021E000882309F484C0C2010E9498168B2CA19404
:1021F000A99CA02C1124AA94AA94C8018A19910917
:10220000A7FC939502970CF476C031E03C830A0D4D
:10221000111DA7FC1A9517FF02C00F5F1F4FC801C1
:10222000959587959A83898329812B83ED81FE81FA
:102230001082EF81F885808381E0EB85FC858083C7
:10224000ED85FE8510820F851889E12CF12C4B2D30
:10225000552747FD509533E0E91420F5E416F506BF
:1022600069F4ED81FE813083F3018081F22FB89E05
:10227000F00D11248F2FEF81F8858083F80165918F
:102280007491C101298B3C8B4A8B5B8B0E94CE1CC5
:10229000FFEFEF1AFF0A0E5F1F4F5B894A893C89E7
:1022A0002989DACF60E0C1010E942C09F301808105
:1022B0004981B89E400D1124415024E560E0C101E0
:1022C0000E94570961E0C1010E942C09F30180813D
:1022D00003E0080F4981B89E400D1124425053E09D
:1022E000E52E24E560E0C1010E94890A24CFC201E5
:1022F0000E94AE167CCF882D66960FB6F894DEBF8E
:102300000FBECDBFDF91CF911F910F91FF90EF9046
:10231000DF90CF90BF90AF909F908F907F906F9005
:102320005F904F903F902F9008950F931F93CF93FE
:10233000DF938C01EC01C25BDF4FCE010E94D3081A
:102340006BEB72E0CE010E948C1CCE010E94E4086F
:102350008CB583608CBD8DB58E7F8DBD83E391E0A0
:10236000EEEFFFE30995F801EC5AFF4F108266E9A2
:1023700072E0CE010E94CE1CCE010E94E408065FEE
:102380001F4FC8010E94580864E0C8010E948F08CE
:10239000811107C062E370E080E090E00E949E1A25
:1023A000F0CFDF91CF911F910F9108952F923F921F
:1023B0004F925F926F927F928F929F92AF92BF9255
:1023C000CF92DF92EF92FF920F931F93CF93DF9301
:1023D000CDB7DEB729970FB6F894DEBF0FBECDBFDD
:1023E000998788871B012A013C0180E7680E711CD0
:1023F000F3018081882309F402C181E0E885F98531
:10240000EA5AFF4F8083E885F985EB5AFF4F108227
:10241000E885F985EC5AFF4F1082E885F985108E22
:102420008F01025B1F4F61E0C8010E942C09888563
:1024300099858D5A9F4F9C838B83C884D98497E557
:10244000C90ED11CE884F984E8E5EE0EF11C8885FC
:1024500099858E5A9F4F9A838983E885F985EF582D
:10246000FF4FFE83ED8388849984FAE08F0E911CE0
:10247000A884B98485E2A80EB11C888599850E943C
:10248000890F8823D1F3F1018491882321F0EB8116
:10249000FC81508101C050E025E233E040E060E083
:1024A000C8015F830E94220B5F814114510439F0FF
:1024B0004CE0450F920160E0C8010E94220BF6013A
:1024C00010828CE0F7018083B101C8010E948C1C4E
:1024D000E981FA819081892F880F890F81958D5A22
:1024E000F6018083EB81FC819081892F880F890F11
:1024F0008195835DF7018083ED81FE81808184FF7A
:1025000003C061E273E002C06DE173E0C8010E94A4
:10251000CE1CE981FA819081892F880F890F8195DE
:102520008D5AF6018083F70180818F5F8083E88573
:10253000F98582A5882319F069E173E002C065E19D
:1025400073E0C8010E94CE1CE981FA819081892F35
:10255000880F890F81958D5AF6018083F70180815C
:102560008F5F808361E173E0C8010E94CE1C65E04B
:10257000C4010E948F08882351F0E885F98562A57F
:102580006F5FC5010E94DA16C5010E94C41664E09F
:10259000C4010E948F08811113C0F3012081822F92
:1025A00090E0A0E0B0E0ED81FE8140815181628148
:1025B0007381481759076A077B07A8F02F3F99F0E6
:1025C0008FEFF3018083088519850B5D1F4F60E055
:1025D000C8010E94C114C8010E94981681E0E885D4
:1025E000F985808F0CC066E0C4010E948F088823A3
:1025F00009F443CF888599850E94951134CF299697
:102600000FB6F894DEBF0FBECDBFDF91CF911F9103
:102610000F91FF90EF90DF90CF90BF90AF909F9081
:102620008F907F906F905F904F903F902F90089584
:1026300040E050E00C94D611E0E8F7E725913491A2
:1026400081E02130304C09F080E00895CF93DF9392
:10265000EC010E941C139E01275A3F4FDE01A05936
:10266000BF4F882309F43CC0E6E9F7E78491F901FC
:102670008083E7E9F7E7E491EC83E8E9F7E7E491A1
:10268000ED83E9E9F7E7859194919F838E83EBE9E8
:10269000F7E78591949199878887EDE9F7E7E491C9
:1026A000EBA7EEE9F7E7E491EAA7EFE9F7E7E491B2
:1026B000EC93E0EAF7E7859194919D8F8C8FE2EAA5
:1026C000F7E7859194919F8F8E8FE4EAF7E78591E4
:1026D000949199A388A3E6EAF7E78591949120C0A5
:1026E0008CE3F90180831C822FEF2D8380E293E03D
:1026F0009F838E8384ED93E09987888781E08BA701
:102700008AA72C938CEA9DE09D8F8C8F8EED9DE0A7
:102710009F8F8E8F84E79EE099A388A38CE39FE030
:102720009BA38AA3DF91CF910895CF92DF92EF927E
:102730000F93CF93DF93EC01FC01E158FF4F82E34D
:102740008083349741E050E060E070E04083518343
:10275000628373833B978FEF8083CE010E942613A1
:10276000CE010E949D076FEFCE010E94A1076E016E
:102770008AE0C80ED11CC6010E944808C6010E940A
:102780005808CE0148960E9404083EE0E32E0FE070
:1027900020E14BE06DE0CE01825B9F4F0E94680C10
:1027A000A596CE010E942D1465E0C6010E948F08F7
:1027B000882351F060E0CE01DF91CF910F91EF902F
:1027C000DF90CF900C94DA1640E065E973E0CE011B
:1027D000DF91CF910F91EF90DF90CF900C94CC14BC
:1027E000CF93DF9350E0FA01EE0FFF1FE80FF91FC0
:1027F00037852089E32FF22FE60FF11DE60FF11D3B
:1028000025913491FA01EE0FFF1FE80FF91F30A355
:10281000278FF90165917491FC01D481D69FC02D59
:102820001124E40FF51FC1A3F901A591B4916B2FF9
:1028300070E0EC2FF0E0DC01A40FB51F6E177F07EE
:1028400020F4F90125913491C32FCD9FC02D11247F
:102850009296CC93DF91CF91089521E0FC012483DF
:1028600024E020A724EF33E0308B278740E060E0AE
:102870000E94F01361E070E083E00E941E1BE1EB18
:10288000F0E08081887F81608083F89410928000DE
:10289000E1E8F0E01082109285001092840088E157
:1028A00091E0909389008093880080818860808384
:1028B000808181608083EFE6F0E0808182608083A8
:1028C000789408950F93FC01862F642F011129C07D
:1028D0008230D1F048F4882391F0813011F540E046
:1028E000CF010F910C94F0138330A9F08430C9F418
:1028F0008481489F602D1124658F268F12C04B3034
:1029000008F06AE0668B0DC08481489F602D112419
:10291000618F228F06C08481489F602D1124638FB0
:10292000248F0F910895FC0121110EC0648B8481C6
:10293000489F402D1124458B15A214A213A281E0BB
:10294000878B8093F503108E08958091F50388237B
:1029500019F08091F20301C080E08093B4000895E3
:10296000FC0161110DC0178A158A14A213A2108EE2
:102970001092F2031092F3031092F5030C94A51435
:102980000895CF93DF93EC01611103C00E94B0144E
:102990001982DF91CF9108950F931F93CF93DF9307
:1029A000EC018B0141110EC060E00E94C1141E8732
:1029B0000D871B8A1A8A81E0898389E08E8B198EA4
:1029C0001B8E1D8EDF91CF911F910F910895CF9394
:1029D000DF93EC01611128C08881882329F1898166
:1029E000811122C089852F819885E22FF92FE80F68
:1029F000F11DE80FF11D859194918F3F2FEF920704
:102A000011F4188211C09C879927880F991FEA85B5
:102A1000FB85E80FF91F6591749140E0CE010E949B
:102A2000CC1489858F5F8987DF91CF91089560E00D
:102A30000C94E71460E00C94C1140F93CF93DF93D0
:102A4000EC0161115DC08981882309F459C08D8929
:102A5000811156C02D853E858A899B89880F991FD3
:102A6000820F931FFC01859194910097D1F489897D
:102A7000882321F01B8A1A8AF90111C019828881E2
:102A800060E0882331F0CE010E94E7148A899B8997
:102A900025C0CE01DF91CF910F910C94B014859198
:102AA0009491BC01769567957695679580FF1DC0DA
:102AB000AC01A6E056954795AA95E1F7292F2695F2
:102AC0002695269520514F716F7000E0CE010E942F
:102AD00062148A899B8901969B8B8A8B880F991F28
:102AE000ED85FE85E80FF91FDACF492F6F7320E0DF
:102AF000CE010E9493148A899B8901969B8B8A8BB5
:102B0000DF91CF910F91089560E00C941D15CF9344
:102B1000DF93EC016111B9C08F89882309F4B5C036
:102B20008D89811105C0CE01DF91CF910C94B01435
:102B300081508D8B8DA1811138C08BA19CA10196F4
:102B40009C01220F331FEF8DF8A1E20FF31F259197
:102B50003491422F47704EA3A90163E056954795E3
:102B60006A95E1F7BA0176956795232F2695269504
:102B70002FA36F732C81629F602D11246DA3417070
:102B80004093F1039CA38BA329A130E08217930704
:102B900060F08AA1882329F0281B31093CA32BA3CC
:102BA00004C060E0CE010E94B0148DA181508DA3BD
:102BB000288D2F5F288F4C893FA1340F8C85380FCB
:102BC0003A836B8D662361F070E0822F992787FD31
:102BD00090950E947B1F8C8D869F300D11243A8327
:102BE0008A8190E0CB966BE370E00E947B1F8A8322
:102BF0003E893B83698D662371F0772767FD709569
:102C0000822F992787FD90950E947B1F8A8D869F32
:102C1000300D11243B836D8D662391F0822F99270F
:102C200087FD909570E00E947B1FCB0162E070E011
:102C30000E947B1F2E8D9B81289F900D11249B83CA
:102C40008B814F3339F08A300CF089E087FD80E0CA
:102C50008B8301C01B82F894EA81F0E0ED55FC4FB4
:102C6000E491E093F40398A58D81989F802D112421
:102C70009B81899F802D11249EA1899F802D1124E5
:102C80008093F3038093F2037894DF91CF910895BA
:102C900060E00C9487156091F303662321F1809125
:102CA000F6038F5F8093F6039091F4038917D8F0B1
:102CB0008091F50391E089278093F5031092F60344
:102CC0008091F103882369F09091130183E4989F28
:102CD000802D1124895B809313010E945B1F9093C8
:102CE000F2030C94A51408951F920F920FB60F9241
:102CF00011242F933F934F935F936F937F938F9301
:102D00009F93AF93BF93EF93FF930E944B16FF9156
:102D1000EF91BF91AF919F918F917F916F915F9153
:102D20004F913F912F910F900FBE0F901F901895CC
:102D3000CF93DF93EC0160E00E94C1148CEE93E02E
:102D40009E878D871B8A1A8A81E0898389E08E8B12
:102D5000198E1B8E1D8EDF91CF910895CF93DF9337
:102D6000EC0160E00E94C11484EE93E09E878D87A1
:102D70001B8A1A8A81E0898389E08E8B198E1B8ECB
:102D80001D8EDF91CF910895CF93DF93EC0160E02A
:102D90000E94C1148EED93E09E878D871B8A1A8A4C
:102DA00081E0898389E08E8B198E1B8E1D8EDF91C9
:102DB000CF910895FC01862F992787FD9095668114
:102DC00070E06F5F7F4F0E947B1F85830895809125
:102DD0002B0490E020912C04821B910908952091EE
:102DE0002C0480912B04281750F4E22FF0E0E35DCF
:102DF000FB4F808190E02F5F20932C0408958FEF8C
:102E00009FEF0895E0912C0480912B04E81730F493
:102E1000F0E0E35DFB4F808190E008958FEF9FEF3E
:102E200008950895E0910304F09104043097E1F0CF
:102E300030912C0420912B043217B0F040E0242F65
:102E400030E02617370754F4DC01A20FB31F5C9162
:102E5000D901A35DBB4F5C934F5FF1CF10922C045F
:102E600060932B04CB0109940895E0910504F0913F
:102E70000604309729F0109209041092080409946E
:102E80000895CF92DF92EF92FF920F931F93CF930B
:102E9000DF937C01CB018A0120910704222389F072
:102EA000EB016B01C40ED51ECC15DD0569F06991EF
:102EB000D701ED91FC910190F081E02DC7010995BA
:102EC000F3CF642F0E94C518C801DF91CF911F91E5
:102ED0000F91FF90EF90DF90CF900895CF93DF9305
:102EE0001F92CDB7DEB76983209107042223D1F06A
:102EF00020910804203240F021E030E0FC013383CF
:102F0000228380E090E015C080910904E82FF0E072
:102F1000E65FFB4F998190838F5F809309048093D4
:102F2000080405C061E0CE0101960E94C51881E049
:102F300090E00F90DF91CF910895FC0113821282EF
:102F400048EE53E060E070E0448355836683778306
:102F50008EE391E091838083089510922C04109267
:102F60002B0410920904109208040C940C18CF93AF
:102F7000DF93EC01862F0E942A1885E397E10E94D7
:102F8000E31882E197E10E94DE18CE01DF91CF9134
:102F90000C94AD170C94B717862F413208F040E21D
:102FA0006DE274E00E942E1810922C0480932B0482
:102FB000089521E00C94CC1781E08093070460937E
:102FC0002A04109209041092080408950C94DC1746
:102FD0000F93062F21E0409108046AE074E080918D
:102FE0002A040E9472181092090410920804109288
:102FF00007040F91089561E00C94E817709304049E
:103000006093030408957093060460930504089583
:1030100087EF93E00C949D171092BA0481E080939F
:10302000B8041092B70461E082E10E94DF1B61E006
:1030300083E10E94DF1BE9EBF0E080818E7F8083DB
:1030400080818D7F808388E48093B80085E48093BD
:10305000BC000895880F8093BA000895413208F0AB
:103060003FC09091BA049111FCCF91E09093BA04C3
:103070002093B8042FEF20934D0410929204240F54
:10308000209391049093B9049091B904880F892BEF
:103090008093B9048091B704813041F41092B70451
:1030A0008091B9048093BB0085EC01C085EE8093CC
:1030B000BC008091BA048130E1F3809192048417BE
:1030C00010F44091920423E934E0FB01D9018A2FE6
:1030D000821B841718F48D918193F9CF842F089562
:1030E00080E008950F93413208F046C09091BA04F1
:1030F0009111FCCF92E09093BA040093B8049FEF33
:1031000090934D041092920440939104FB0163E963
:1031100074E0DB019A2F961B941718F491919D93FC
:10312000F9CF1092B9049091B904880F892B80933C
:10313000B9048091B704813041F41092B7048091B2
:10314000B9048093BB0085EC01C085EE8093BC0080
:10315000222321F08091BA048230E1F380914D0462
:103160008F3F61F080914D04803251F080914D0489
:10317000803341F483E007C081E005C080E003C0F4
:1031800082E001C084E00F910895613298F42091AB
:10319000BA04243089F460936F04FC0181E794E061
:1031A000DC012A2F281B261718F421912D93F9CF23
:1031B00080E0089581E0089582E008959093B4043A
:1031C0008093B30408959093B6048093B504089552
:1031D00085ED8093BC008091BC0084FDFCCF1092F3
:1031E000BA04089585EC8093BC001092BA04089547
:1031F0001F920F920FB60F9211242F933F934F936C
:103200005F936F937F938F939F93AF93BF93EF934E
:10321000FF938091B900887F803609F49CC068F5DF
:10322000883209F45BC090F4803109F454C038F45A
:10323000882309F4F5C0883009F44DC0F5C0883101
:1032400009F44CC0803209F45DC0EEC0803409F44A
:1032500068C048F4803309F455C0883309F0E4C0ED
:1032600080934D04A8C0803509F44FC0883509F417
:103270005DC0883409F0D8C0D5C0883909F4C6C00B
:10328000A8F4883709F467C038F4883609F463C0B5
:10329000803709F460C0C8C0883809F4B7C08039E5
:1032A00009F45FC0803809F0BFC05BC0803B09F4FF
:1032B00085C038F4803A09F466C0883A09F47EC0C3
:1032C000B3C0803C09F4A6C0883C09F4A3C0883B85
:1032D00009F489C0A9C08091B90410C090919204EA
:1032E00080919104981770F5E091920481E08E0F1F
:1032F00080939204F0E0ED56FB4F80818093BB00F9
:1033000085EC85C080934D048DC0E091920481E0EE
:103310008E0F809392048091BB00F0E0ED56FB4F3E
:10332000808390919204809191046DC0E091920409
:1033300081E08E0F809392048091BB00F0E0ED5607
:10334000FB4F80838091B80481116CC081E0809331
:10335000B70484EA60C083E08093BA0410924E04FC
:10336000CFCF80914E04803208F050C0E0914E04DF
:1033700081E08E0F80934E048091BB00F0E0E15B12
:10338000FB4F8083BDCF80914E04803230F4E091BA
:103390004E04F0E0E15BFB4F10820E94E818609160
:1033A0004E0470E0E091B304F091B4048FE494E033
:1033B000099510924E040E94F21836C084E0809362
:1033C000BA041092700410926F04E091B504F09169
:1033D000B604099580916F04811105C081E0809346
:1033E0006F0410927104E091700481E08E0F80935D
:1033F0007004F0E0EF58FB4F80818093BB00909108
:10340000700480916F04981708F47ACF85E8809350
:10341000BC000AC085EC8093BC001092BA0404C0C2
:1034200010924D040E94E818FF91EF91BF91AF9167
:103430009F918F917F916F915F914F913F912F91CC
:103440000F900FBE0F901F9018951F920F920FB6FE
:103450000F9211242F933F938F939F93AF93BF931A
:103460008091BC049091BD04A091BE04B091BF04B2
:103470003091BB0423E0230F2D3720F40196A11DCA
:10348000B11D05C026E8230F0296A11DB11D209392
:10349000BB048093BC049093BD04A093BE04B0937E
:1034A000BF048091C0049091C104A091C204B09166
:1034B000C3040196A11DB11D8093C0049093C10463
:1034C000A093C204B093C304BF91AF919F918F9119
:1034D0003F912F910F900FBE0F901F9018952FB70F
:1034E000F8946091BC047091BD048091BE049091E9
:1034F000BF042FBF08953FB7F8948091C004909106
:10350000C104A091C204B091C30426B5A89B05C014
:103510002F3F19F00196A11DB11D3FBF6627782FDF
:10352000892F9A2F620F711D811D911D42E0660F38
:10353000771F881F991F4A95D1F70895CF92DF9280
:10354000EF92FF92CF93DF936B017C010E947B1A75
:10355000EB01C114D104E104F10489F00E942D1E95
:103560000E947B1A6C1B7D0B683E734090F381E0D8
:10357000C81AD108E108F108C851DC4FEACFDF9141
:10358000CF91FF90EF90DF90CF900895789484B51D
:10359000826084BD84B5816084BD85B5826085BD4F
:1035A00085B5816085BDEEE6F0E080818160808335
:1035B000E1E8F0E010828081826080838081816018
:1035C0008083E0E8F0E0808181608083E1EBF0E0DF
:1035D000808184608083E0EBF0E080818160808383
:1035E000EAE7F0E08081846080838081826080836C
:1035F0008081816080838081806880831092C10097
:1036000008958E3008F08E5087702091140190E458
:10361000299F90011124822B80937C0080917A0055
:10362000806480937A0080917A0086FDFCCF80913F
:1036300078002091790090E0922B08951F93CF930A
:10364000DF93182FEB0161E00E94A61B209711F475
:1036500060E004C0CF3FD10539F461E0812FDF91F4
:10366000CF911F910C94DF1BE12FF0E0E050FC4F55
:10367000E491E330F9F048F4E130B9F0E230A1F53B
:1036800084B5806284BDC8BD34C0E730E9F0E8305D
:1036900019F1E43049F580918000806280938000C8
:1036A000D0938B00C0938A0024C084B5806884BD09
:1036B000C7BD1FC080918000806880938000D09338
:1036C0008900C093880015C08091B0008068809305
:1036D000B000C093B3000DC08091B00080628093B1
:1036E000B000C093B40005C0C038D1050CF0B5CF10
:1036F000AFCFDF91CF911F910895833081F028F4EF
:10370000813099F08230A1F008958730A9F0883097
:10371000B9F08430D1F4809180008F7D03C0809116
:1037200080008F7780938000089584B58F7702C0E2
:1037300084B58F7D84BD08958091B0008F7703C0DC
:103740008091B0008F7D8093B0000895CF93DF9378
:1037500090E0FC01EC5EFB4F2491FC01E85DFB4F27
:103760008491882349F190E0880F991FFC01E05B68
:10377000FB4FA591B4918A5B9B4FFC01C591D491FD
:103780009FB7611108C0F8948C91209582238C9387
:10379000888182230AC0623051F4F8948C91322FD0
:1037A000309583238C938881822B888304C0F8947E
:1037B0008C91822B8C939FBFDF91CF9108950F93B3
:1037C0001F93CF93DF931F92CDB7DEB7282F30E042
:1037D000F901E050FC4F8491F901EC5EFB4F14912C
:1037E000F901E85DFB4F04910023C9F0882321F023
:1037F00069830E947D1B6981E02FF0E0EE0FFF1FBF
:10380000EA5BFB4FA591B4919FB7F8948C9161113D
:1038100003C01095812301C0812B8C939FBF0F9013
:10382000DF91CF911F910F910895CF93DF93282FB0
:1038300030E0F901E050FC4F8491F901EC5EFB4F60
:10384000D491F901E85DFB4FC491CC2391F0811133
:103850000E947D1BEC2FF0E0EE0FFF1FE45CFB4F9E
:10386000A591B4912C912D2381E090E021F480E08A
:1038700002C080E090E0DF91CF91089508950E940A
:10388000C61A0E943E1C0E942B05C0E0D0E00E9498
:10389000B3062097E1F30E940000F9CFCF92DF92A8
:1038A000EF92FF920F931F93CF93DF936C017A01F6
:1038B000EB01E60EF71E00E010E0CE15DF0561F02B
:1038C0006991D601ED91FC910190F081E02DC60146
:1038D0000995080F191FF1CFC801DF91CF911F91F2
:1038E0000F91FF90EF90DF90CF90089561157105D3
:1038F00081F0DB010D900020E9F7AD014150510945
:10390000461B570BDC01ED91FC910280F381E02D09
:10391000099480E090E00895EF92FF920F931F9337
:10392000CF93DF938C01FB01C0E0D0E064917F0175
:103930008FEFE81AF80A662361F0D801ED91FC9147
:103940000190F081E02DC8010995C80FD91FF7013A
:10395000EDCFCE01DF91CF911F910F91FF90EF90AE
:1039600008950C94761CDC01ED91FC910190F0819E
:10397000E02D09940F931F93CF93DF93EC016DE03B
:103980000E94B31C8C016AE0CE010E94B31C800F20
:10399000911FDF91CF911F910F9108950F931F9366
:1039A000CF93DF93EC010E948C1C8C01CE010E940E
:1039B000BA1C800F911FDF91CF911F910F91089535
:1039C0008F929F92AF92BF92CF92DF92EF92FF922F
:1039D0000F931F93CF93DF93CDB7DEB7A1970FB6A9
:1039E000F894DEBF0FBECDBF7C01C42EE52FCB0106
:1039F000D22E19A221E02D1510F02AE0D22E8E0130
:103A00000F5D1F4F8D2C912CA12CB12C6C2D7E2F76
:103A1000A50194010E948F1F8C2DD29E8019112424
:103A2000015011098A3014F4805D01C0895CF801ED
:103A30008083211531054105510521F0C22EE32F68
:103A4000CA01E4CFB801C7010E94761CA1960FB647
:103A5000F894DEBF0FBECDBFDF91CF911F910F91C4
:103A6000FF90EF90DF90CF90BF90AF909F908F909E
:103A70000895CF92DF92EF92FF920F931F93CF930F
:103A8000DF93EC016A017B012115310579F4E881AE
:103A9000F9810190F081E02D642FDF91CF911F918A
:103AA0000F91FF90EF90DF90CF9009942A3031056D
:103AB000E9F477FF1AC06DE20E94B31C8C01442721
:103AC0005527BA014C195D096E097F092AE0CE011C
:103AD0000E94E01C800F911FDF91CF911F910F91E9
:103AE000FF90EF90DF90CF9008952AE0B701A601F4
:103AF000CE01DF91CF911F910F91FF90EF90DF905A
:103B0000CF900C94E01C9A01AB01662757FD60959D
:103B1000762F0C94391D2115310541F4DC01ED910E
:103B2000FC910190F081E02D642F09940C94E01C2D
:103B30009A01AB0160E070E00C948B1D009729F0B6
:103B4000BC0180E090E00C9444200895CF93DF9373
:103B500000D000D0CDB7DEB79B01AC016115710577
:103B60008105910569F069833A834B835C830E94E8
:103B70003F2029813A814B815C810E94B11F03C0A3
:103B800060E070E0CB010F900F900F900F90DF91ED
:103B9000CF910895CF92DF92EF92FF926B017C015B
:103BA000621773078407950764F4CA01B9016C1999
:103BB0007D098E099F090E94A61D6C0D7D1D8E1D1D
:103BC0009F1DFF90EF90DF90CF9008954F925F92EE
:103BD0006F927F92AF92BF92CF92DF92EF92FF925D
:103BE0000F931F93CF93DF93CDB7DEB729013A012F
:103BF000621B730B840B950B29893A894B895C896D
:103C00002A193B094C095D09298B3A8B4B8B5C8B3C
:103C10009B01AC0169897A898B899C890E944B1F21
:103C2000E418F50806091709A80197010E94B11FB9
:103C30002A0D3B1D4C1D5D1DCA01B901DF91CF91BD
:103C40001F910F91FF90EF90DF90CF90BF90AF90BA
:103C50007F906F905F904F900895089598D088F06E
:103C60009F5790F0B92F9927B751A0F0D1F0660F68
:103C7000771F881F991F1AF0BA95C9F712C0B13083
:103C800081F09FD0B1E008959CC0672F782F8827DE
:103C9000B85F39F0B93FCCF3869577956795B395C2
:103CA000D9F73EF490958095709561957F4F8F4F31
:103CB0009F4F0895E89409C097FB3EF49095809536
:103CC000709561957F4F8F4F9F4F9923A9F0F92FE2
:103CD00096E9BB279395F695879577956795B79560
:103CE000F111F8CFFAF4BB0F11F460FF1BC06F5F46
:103CF0007F4F8F4F9F4F16C0882311F096E911C058
:103D0000772321F09EE8872F762F05C0662371F078
:103D100096E8862F70E060E02AF09A95660F771F8C
:103D2000881FDAF7880F9695879597F9089597F980
:103D30009F6780E870E060E008959FEF80EC089551
:103D400000240A941616170618060906089500247A
:103D50000A9412161306140605060895092E0394F4
:103D6000000C11F4882352F0BB0F40F4BF2B11F468
:103D700060FF04C06F5F7F4F8F4F9F4F089557FDC7
:103D80009058440F551F59F05F3F71F04795880FC9
:103D900097FB991F61F09F3F79F087950895121660
:103DA00013061406551FF2CF4695F1DF08C016160C
:103DB00017061806991FF1CF8695710561050894BD
:103DC0000895E894BB2766277727CB0197F90895D4
:103DD0000BD0C4CFB5DF28F0BADF18F0952309F077
:103DE000A6CFABCF1124EECFCADFA0F3959FD1F3BE
:103DF000950F50E0551F629FF001729FBB27F00D99
:103E0000B11D639FAA27F00DB11DAA1F649F6627ED
:103E1000B00DA11D661F829F2227B00DA11D621F3C
:103E2000739FB00DA11D621F839FA00D611D221FF6
:103E3000749F3327A00D611D231F849F600D211DDA
:103E4000822F762F6A2F11249F5750408AF0E1F07D
:103E500088234AF0EE0FFF1FBB1F661F771F881FC6
:103E600091505040A9F79E3F510570F060CFAACF06
:103E70005F3FECF3983EDCF3869577956795B795B1
:103E8000F795E7959F5FC1F7FE2B880F911D9695DB
:103E9000879597F90895DB018F939F930E94D61F12
:103EA000BF91AF91A29F800D911DA39F900DB29FD6
:103EB000900D11240895991B79E004C0991F96175D
:103EC00008F0961B881F7A95C9F780950895AA1B5C
:103ED000BB1B51E107C0AA1FBB1FA617B70710F0F5
:103EE000A61BB70B881F991F5A95A9F78095909527
:103EF000BC01CD01089597FB072E16F4009407D05E
:103F000077FD09D00E94671F07FC05D03EF490950D
:103F100081959F4F0895709561957F4F0895A1E217
:103F20001A2EAA1BBB1BFD010DC0AA1FBB1FEE1F33
:103F3000FF1FA217B307E407F50720F0A21BB30B7E
:103F4000E40BF50B661F771F881F991F1A9469F7FA
:103F500060957095809590959B01AC01BD01CF0156
:103F60000895052E97FB1EF400940E94C81F57FD6C
:103F700007D00E948F1F07FC03D04EF40C94C81F7B
:103F800050954095309521953F4F4F4F5F4F089585
:103F900090958095709561957F4F8F4F9F4F0895B5
:103FA000EE0FFF1F0590F491E02D09940E94E11F90
:103FB000A59F900DB49F900DA49F800D911D11247D
:103FC0000895A29FB001B39FC001A39F700D811DF2
:103FD0001124911DB29F700D811D1124911D089512
:103FE0008F929F92AF92BF92CF92DF92EF92FF9209
:103FF000CF93DF93EC01688179818A819B81611580
:1040000071058105910521F464E279ED8BE597E076
:104010002DE133EF41E050E00E94B11F49015A0108
:104020009B01AC01A7EAB1E40E94D61F6B017C01A1
:10403000ACEEB4EFA50194010E945020C60ED71E2D
:10404000E81EF91EF7FE06C081E0C81AD108E10893
:1040500080E8F80AC882D982EA82FB82C701B601E9
:104060009F77DF91CF91FF90EF90DF90CF90BF903F
:10407000AF909F908F9008950E94F01F089586E062
:1040800091E00E94F01F089560930601709307016C
:1040900080930801909309010895B7FF0C94D61FEF
:0E40A0000E94D61F821B930B0895F894FFCF49
:1040AE000000C404800001000000010000010002B5
:1040BE0000030001014567616C6974650050322090
:1040CE0077696E0050312077696E0000000000D2D3
:1040DE000D4E1C4C4F4144455200000000006E171F
:0A40EE004117E716EF16021711172D
:00000001FF
